{
  "abi": [
    {
      "inputs": [
        {
          "internalType": "uint256[]",
          "name": "array",
          "type": "uint256[]"
        }
      ],
      "name": "arrayToList",
      "outputs": [
        {
          "internalType": "LinkedList",
          "name": "list",
          "type": "bytes32"
        }
      ],
      "stateMutability": "pure",
      "type": "function"
    },
    {
      "inputs": [
        {
          "internalType": "LinkedList",
          "name": "list",
          "type": "bytes32"
        },
        {
          "internalType": "uint256",
          "name": "length",
          "type": "uint256"
        }
      ],
      "name": "listToArray",
      "outputs": [
        {
          "internalType": "uint256[]",
          "name": "array",
          "type": "uint256[]"
        }
      ],
      "stateMutability": "pure",
      "type": "function"
    }
  ],
  "bytecode": {
    "object": "0x6103d161003a600b82828239805160001a60731461002d57634e487b7160e01b600052600060045260246000fd5b30600052607381538281f3fe73000000000000000000000000000000000000000030146080604052600436106100405760003560e01c80635c35f12f14610045578063e87f3be91461006e575b600080fd5b610058610053366004610224565b61008f565b6040516100659190610246565b60405180910390f35b61008161007c3660046102a0565b610168565b604051908152602001610065565b60608167ffffffffffffffff8111156100aa576100aa61028a565b6040519080825280602002602001820160405280156100d3578160200160208202803683370190505b509050811561016257600169ffffffffffffffffffff606085901c1660005b821561015e5760006101168360408051808201909152600080825260208201525090565b9050806000015185838151811061012f5761012f61035e565b60209081029190910101528161014481610374565b60b089901c949094015180151595509392506100f2915050565b5050505b92915050565b600160b51b60005b82518110156101cc576101b86101b1604051806040016040528086858151811061019c5761019c61035e565b60200260200101518152602001600081525090565b83906101d2565b9150806101c481610374565b915050610170565b50919050565b6000808360501b60b01c11600181146101f7578260101b8360601b851717915061021d565b828460b01c8560a01b60b01c01528260101b6bffffffffffffffffffffffff1985161791505b5092915050565b6000806040838503121561023757600080fd5b50508035926020909101359150565b6020808252825182820181905260009190848201906040850190845b8181101561027e57835183529284019291840191600101610262565b50909695505050505050565b634e487b7160e01b600052604160045260246000fd5b600060208083850312156102b357600080fd5b823567ffffffffffffffff808211156102cb57600080fd5b818501915085601f8301126102df57600080fd5b8135818111156102f1576102f161028a565b8060051b604051601f19603f830116810181811085821117156103165761031661028a565b60405291825284820192508381018501918883111561033457600080fd5b938501935b8285101561035257843584529385019392850192610339565b98975050505050505050565b634e487b7160e01b600052603260045260246000fd5b60006001820161039457634e487b7160e01b600052601160045260246000fd5b506001019056fea264697066735822122003d86ba28591038745831cd25ab4f6512a0ea1cd98303fc6c165c5d9df0fed6d64736f6c63430008100033",
    "linkReferences": {}
  },
  "methodIdentifiers": {
    "arrayToList(uint256[])": "e87f3be9",
    "listToArray(bytes32,uint256)": "5c35f12f"
  },
  "id": 10
}