{
  "abi": [
    {
      "inputs": [
        {
          "internalType": "address",
          "name": "world",
          "type": "address"
        }
      ],
      "stateMutability": "nonpayable",
      "type": "constructor"
    },
    {
      "inputs": [
        {
          "internalType": "address",
          "name": "writer",
          "type": "address"
        }
      ],
      "name": "authorizeWriter",
      "outputs": [],
      "stateMutability": "nonpayable",
      "type": "function"
    },
    {
      "inputs": [],
      "name": "getEntities",
      "outputs": [
        {
          "internalType": "uint256[]",
          "name": "",
          "type": "uint256[]"
        }
      ],
      "stateMutability": "view",
      "type": "function"
    },
    {
      "inputs": [
        {
          "internalType": "bytes",
          "name": "value",
          "type": "bytes"
        }
      ],
      "name": "getEntitiesWithValue",
      "outputs": [
        {
          "internalType": "uint256[]",
          "name": "",
          "type": "uint256[]"
        }
      ],
      "stateMutability": "view",
      "type": "function"
    },
    {
      "inputs": [
        {
          "components": [
            {
              "internalType": "int256",
              "name": "x",
              "type": "int256"
            },
            {
              "internalType": "int256",
              "name": "y",
              "type": "int256"
            },
            {
              "internalType": "int256",
              "name": "width",
              "type": "int256"
            },
            {
              "internalType": "int256",
              "name": "height",
              "type": "int256"
            }
          ],
          "internalType": "struct Collider",
          "name": "value",
          "type": "tuple"
        }
      ],
      "name": "getEntitiesWithValue",
      "outputs": [
        {
          "internalType": "uint256[]",
          "name": "",
          "type": "uint256[]"
        }
      ],
      "stateMutability": "view",
      "type": "function"
    },
    {
      "inputs": [
        {
          "internalType": "uint256",
          "name": "entity",
          "type": "uint256"
        }
      ],
      "name": "getRawValue",
      "outputs": [
        {
          "internalType": "bytes",
          "name": "",
          "type": "bytes"
        }
      ],
      "stateMutability": "view",
      "type": "function"
    },
    {
      "inputs": [],
      "name": "getSchema",
      "outputs": [
        {
          "internalType": "string[]",
          "name": "keys",
          "type": "string[]"
        },
        {
          "internalType": "enum LibTypes.SchemaValue[]",
          "name": "values",
          "type": "uint8[]"
        }
      ],
      "stateMutability": "pure",
      "type": "function"
    },
    {
      "inputs": [
        {
          "internalType": "uint256",
          "name": "entity",
          "type": "uint256"
        }
      ],
      "name": "getValue",
      "outputs": [
        {
          "components": [
            {
              "internalType": "int256",
              "name": "x",
              "type": "int256"
            },
            {
              "internalType": "int256",
              "name": "y",
              "type": "int256"
            },
            {
              "internalType": "int256",
              "name": "width",
              "type": "int256"
            },
            {
              "internalType": "int256",
              "name": "height",
              "type": "int256"
            }
          ],
          "internalType": "struct Collider",
          "name": "",
          "type": "tuple"
        }
      ],
      "stateMutability": "view",
      "type": "function"
    },
    {
      "inputs": [
        {
          "internalType": "uint256",
          "name": "entity",
          "type": "uint256"
        }
      ],
      "name": "has",
      "outputs": [
        {
          "internalType": "bool",
          "name": "",
          "type": "bool"
        }
      ],
      "stateMutability": "view",
      "type": "function"
    },
    {
      "inputs": [],
      "name": "id",
      "outputs": [
        {
          "internalType": "uint256",
          "name": "",
          "type": "uint256"
        }
      ],
      "stateMutability": "view",
      "type": "function"
    },
    {
      "inputs": [],
      "name": "owner",
      "outputs": [
        {
          "internalType": "address",
          "name": "",
          "type": "address"
        }
      ],
      "stateMutability": "view",
      "type": "function"
    },
    {
      "inputs": [
        {
          "internalType": "address",
          "name": "indexer",
          "type": "address"
        }
      ],
      "name": "registerIndexer",
      "outputs": [],
      "stateMutability": "nonpayable",
      "type": "function"
    },
    {
      "inputs": [
        {
          "internalType": "address",
          "name": "_world",
          "type": "address"
        }
      ],
      "name": "registerWorld",
      "outputs": [],
      "stateMutability": "nonpayable",
      "type": "function"
    },
    {
      "inputs": [
        {
          "internalType": "uint256",
          "name": "entity",
          "type": "uint256"
        }
      ],
      "name": "remove",
      "outputs": [],
      "stateMutability": "nonpayable",
      "type": "function"
    },
    {
      "inputs": [
        {
          "internalType": "uint256",
          "name": "entity",
          "type": "uint256"
        },
        {
          "components": [
            {
              "internalType": "int256",
              "name": "x",
              "type": "int256"
            },
            {
              "internalType": "int256",
              "name": "y",
              "type": "int256"
            },
            {
              "internalType": "int256",
              "name": "width",
              "type": "int256"
            },
            {
              "internalType": "int256",
              "name": "height",
              "type": "int256"
            }
          ],
          "internalType": "struct Collider",
          "name": "value",
          "type": "tuple"
        }
      ],
      "name": "set",
      "outputs": [],
      "stateMutability": "nonpayable",
      "type": "function"
    },
    {
      "inputs": [
        {
          "internalType": "uint256",
          "name": "entity",
          "type": "uint256"
        },
        {
          "internalType": "bytes",
          "name": "value",
          "type": "bytes"
        }
      ],
      "name": "set",
      "outputs": [],
      "stateMutability": "nonpayable",
      "type": "function"
    },
    {
      "inputs": [
        {
          "internalType": "address",
          "name": "newOwner",
          "type": "address"
        }
      ],
      "name": "transferOwnership",
      "outputs": [],
      "stateMutability": "nonpayable",
      "type": "function"
    },
    {
      "inputs": [],
      "name": "world",
      "outputs": [
        {
          "internalType": "address",
          "name": "",
          "type": "address"
        }
      ],
      "stateMutability": "view",
      "type": "function"
    },
    {
      "inputs": [
        {
          "internalType": "address",
          "name": "",
          "type": "address"
        }
      ],
      "name": "writeAccess",
      "outputs": [
        {
          "internalType": "bool",
          "name": "",
          "type": "bool"
        }
      ],
      "stateMutability": "view",
      "type": "function"
    }
  ],
  "bytecode": {
    "object": "0x60806040523480156200001157600080fd5b50604051620021cf380380620021cf83398101604081905262000034916200021a565b807f6a7cc323a056ef9c1378d529556aaabce7ccad47d7a9f011ed1a41766f374ac760001c6040516200006790620001fe565b604051809103906000f08015801562000084573d6000803e3d6000fd5b50600380546001600160a01b0319166001600160a01b0392909216919091179055604051620000b3906200020c565b604051809103906000f080158015620000d0573d6000803e3d6000fd5b50600580546001600160a01b03199081166001600160a01b03938416179091556001805433921682178155600091825260026020526040909120805460ff1916909117905560078290558216156200012d576200012d8262000136565b5050506200024c565b6001546001600160a01b03163314620001825760405162461bcd60e51b815260206004820152600a60248201526927a7262cafa7aba722a960b11b604482015260640160405180910390fd5b600080546001600160a01b0319166001600160a01b038316908117909155600754604051630f30347760e41b8152306004820152602481019190915263f303477090604401600060405180830381600087803b158015620001e257600080fd5b505af1158015620001f7573d6000803e3d6000fd5b5050505050565b6103df806200196583390190565b61048b8062001d4483390190565b6000602082840312156200022d57600080fd5b81516001600160a01b03811681146200024557600080fd5b9392505050565b611709806200025c6000396000f3fe608060405234801561001057600080fd5b50600436106101165760003560e01c80638b282947116100a2578063b361be4611610071578063b361be461461028f578063b8bc073d146102a2578063cc6ae2bd146102c2578063cccf7a8e146102d5578063f2fde38b146102e857600080fd5b80638b282947146102415780638da5cb5b146102545780639d2c76b414610265578063af640d0f1461027857600080fd5b80634cc82215116100e95780634cc82215146101bf5780634fef6a38146101d25780636b122fe0146101e557806375c0669c146101fb578063861eb9051461020e57600080fd5b80630ff4c9161461011b57806330b67baa1461016a57806331b933b9146101955780633a727344146101aa575b600080fd5b61012e610129366004610fb8565b6102fb565b60405161016191908151815260208083015190820152604080830151908201526060918201519181019190915260800190565b60405180910390f35b60005461017d906001600160a01b031681565b6040516001600160a01b039091168152602001610161565b61019d610348565b6040516101619190610fd1565b6101bd6101b836600461102d565b6103bf565b005b6101bd6101cd366004610fb8565b61040b565b6101bd6101e036600461105a565b6106e0565b6101ed61072e565b6040516101619291906110e6565b6101bd61020936600461105a565b610980565b61023161021c36600461105a565b60026020526000908152604090205460ff1681565b6040519015158152602001610161565b6101bd61024f366004611255565b610a01565b6001546001600160a01b031661017d565b6101bd61027336600461105a565b610caf565b61028160075481565b604051908152602001610161565b61019d61029d36600461129c565b610d23565b6102b56102b0366004610fb8565b610d9d565b60405161016191906112d9565b61019d6102d03660046112ec565b610e3f565b6102316102e3366004610fb8565b610e87565b6101bd6102f636600461105a565b610ef5565b6103266040518060800160405280600081526020016000815260200160008152602001600081525090565b61032f82610d9d565b8060200190518101906103429190611308565b92915050565b60035460408051631043567360e21b815290516060926001600160a01b03169163410d59cc9160048083019260009291908290030181865afa158015610392573d6000803e3d6000fd5b505050506040513d6000823e601f3d908101601f191682016040526103ba919081019061136e565b905090565b6040805182356020808301919091528301358183015290820135606080830191909152820135608082015261040790839060a001604051602081830303815290604052610a01565b5050565b3360009081526002602052604090205460ff166104435760405162461bcd60e51b815260040161043a90611414565b60405180910390fd5b6005546000828152600460205260409081902090516001600160a01b03909216916385edea13916104739161146d565b60405190819003812060e083901b6001600160e01b03191682526004820152602401602060405180830381865afa1580156104b2573d6000803e3d6000fd5b505050506040513d601f19601f820116820180604052508101906104d691906114e3565b156106dd576005546000828152600460205260409081902090516001600160a01b0390921691636526db7a9161050b9161146d565b60405190819003812060e083901b6001600160e01b0319168252600482015260248101849052604401600060405180830381600087803b15801561054e57600080fd5b505af1158015610562573d6000803e3d6000fd5b5050600354604051634cc8221560e01b8152600481018590526001600160a01b039091169250634cc822159150602401600060405180830381600087803b1580156105ac57600080fd5b505af11580156105c0573d6000803e3d6000fd5b50505060008281526004602052604081206105dc925090610f6a565b60005b60065481101561067657600681815481106105fc576105fc6114fc565b600091825260209091200154604051634cc8221560e01b8152600481018490526001600160a01b0390911690634cc8221590602401600060405180830381600087803b15801561064b57600080fd5b505af115801561065f573d6000803e3d6000fd5b50505050808061066e90611512565b9150506105df565b50600054604051636c01832560e11b8152306004820152602481018390526001600160a01b039091169063d803064a906044015b600060405180830381600087803b1580156106c457600080fd5b505af11580156106d8573d6000803e3d6000fd5b505050505b50565b6001546001600160a01b0316331461070a5760405162461bcd60e51b815260040161043a90611539565b6001600160a01b03166000908152600260205260409020805460ff19166001179055565b60408051600480825260a08201909252606091829190816020015b606081526020019060019003908161074957505060408051600480825260a0820190925291935060208201608080368337019050509050604051806040016040528060018152602001600f60fb1b815250826000815181106107ad576107ad6114fc565b60200260200101819052506006816000815181106107cd576107cd6114fc565b6020026020010190601f8111156107e6576107e66110d0565b9081601f8111156107f9576107f96110d0565b81525050604051806040016040528060018152602001607960f81b8152508260018151811061082a5761082a6114fc565b602002602001018190525060068160018151811061084a5761084a6114fc565b6020026020010190601f811115610863576108636110d0565b9081601f811115610876576108766110d0565b81525050604051806040016040528060058152602001640eed2c8e8d60db1b815250826002815181106108ab576108ab6114fc565b60200260200101819052506006816002815181106108cb576108cb6114fc565b6020026020010190601f8111156108e4576108e46110d0565b9081601f8111156108f7576108f76110d0565b81525050604051806040016040528060068152602001651a195a59da1d60d21b8152508260038151811061092d5761092d6114fc565b602002602001018190525060068160038151811061094d5761094d6114fc565b6020026020010190601f811115610966576109666110d0565b9081601f811115610979576109796110d0565b9052509091565b3360009081526002602052604090205460ff166109af5760405162461bcd60e51b815260040161043a90611414565b600680546001810182556000919091527ff652222313e28459528d920b65115c16c04f3efc82aaedc97be59f3f377c0d3f0180546001600160a01b0319166001600160a01b0392909216919091179055565b3360009081526002602052604090205460ff16610a305760405162461bcd60e51b815260040161043a90611414565b600354604051630801f16960e11b8152600481018490526001600160a01b0390911690631003e2d290602401600060405180830381600087803b158015610a7657600080fd5b505af1158015610a8a573d6000803e3d6000fd5b50506005546000858152600460205260409081902090516001600160a01b039092169350636526db7a9250610abe9161146d565b60405190819003812060e083901b6001600160e01b0319168252600482015260248101859052604401600060405180830381600087803b158015610b0157600080fd5b505af1158015610b15573d6000803e3d6000fd5b50505060008381526004602052604090209050610b3282826115a8565b506005548151602083012060405163771602f760e01b81526001600160a01b039092169163771602f791610b73918690600401918252602082015260400190565b600060405180830381600087803b158015610b8d57600080fd5b505af1158015610ba1573d6000803e3d6000fd5b5050505060005b600654811015610c445760068181548110610bc557610bc56114fc565b6000918252602090912001546040516242d70760e31b81526001600160a01b0390911690630216b83890610bff9086908690600401611668565b600060405180830381600087803b158015610c1957600080fd5b505af1158015610c2d573d6000803e3d6000fd5b505050508080610c3c90611512565b915050610ba8565b506000546040516302bc413960e61b81526001600160a01b039091169063af104e4090610c7990309086908690600401611681565b600060405180830381600087803b158015610c9357600080fd5b505af1158015610ca7573d6000803e3d6000fd5b505050505050565b6001546001600160a01b03163314610cd95760405162461bcd60e51b815260040161043a90611539565b600080546001600160a01b0319166001600160a01b038316908117909155600754604051630f30347760e41b8152306004820152602481019190915263f3034770906044016106aa565b60055481516020830120604051631e5b17a560e21b815260048101919091526060916001600160a01b03169063796c5e9490602401600060405180830381865afa158015610d75573d6000803e3d6000fd5b505050506040513d6000823e601f3d908101601f19168201604052610342919081019061136e565b6000818152600460205260409020805460609190610dba90611439565b80601f0160208091040260200160405190810160405280929190818152602001828054610de690611439565b8015610e335780601f10610e0857610100808354040283529160200191610e33565b820191906000526020600020905b815481529060010190602001808311610e1657829003601f168201915b50505050509050919050565b6040805182356020808301919091528301358183015290820135606082810191909152828101356080830152906103429060a001604051602081830303815290604052610d23565b600354604051636667bd4760e11b8152600481018390526000916001600160a01b03169063cccf7a8e90602401602060405180830381865afa158015610ed1573d6000803e3d6000fd5b505050506040513d601f19601f8201168201806040525081019061034291906116b1565b6001546001600160a01b03163314610f1f5760405162461bcd60e51b815260040161043a90611539565b33600090815260026020526040808220805460ff19908116909155600180546001600160a01b0319166001600160a01b03959095169485178155938352912080549091169091179055565b508054610f7690611439565b6000825580601f10610f86575050565b601f0160209004906000526020600020908101906106dd91905b80821115610fb45760008155600101610fa0565b5090565b600060208284031215610fca57600080fd5b5035919050565b6020808252825182820181905260009190848201906040850190845b8181101561100957835183529284019291840191600101610fed565b50909695505050505050565b60006080828403121561102757600080fd5b50919050565b60008060a0838503121561104057600080fd5b823591506110518460208501611015565b90509250929050565b60006020828403121561106c57600080fd5b81356001600160a01b038116811461108357600080fd5b9392505050565b6000815180845260005b818110156110b057602081850181015186830182015201611094565b506000602082860101526020601f19601f83011685010191505092915050565b634e487b7160e01b600052602160045260246000fd5b6000604082016040835280855180835260608501915060608160051b8601019250602080880160005b8381101561113d57605f1988870301855261112b86835161108a565b9550938201939082019060010161110f565b50508584038187015286518085528782019482019350915060005b8281101561119157845182811061117f57634e487b7160e01b600052602160045260246000fd5b84529381019392810192600101611158565b5091979650505050505050565b634e487b7160e01b600052604160045260246000fd5b604051601f8201601f1916810167ffffffffffffffff811182821017156111dd576111dd61119e565b604052919050565b600082601f8301126111f657600080fd5b813567ffffffffffffffff8111156112105761121061119e565b611223601f8201601f19166020016111b4565b81815284602083860101111561123857600080fd5b816020850160208301376000918101602001919091529392505050565b6000806040838503121561126857600080fd5b82359150602083013567ffffffffffffffff81111561128657600080fd5b611292858286016111e5565b9150509250929050565b6000602082840312156112ae57600080fd5b813567ffffffffffffffff8111156112c557600080fd5b6112d1848285016111e5565b949350505050565b602081526000611083602083018461108a565b6000608082840312156112fe57600080fd5b6110838383611015565b60006080828403121561131a57600080fd5b6040516080810181811067ffffffffffffffff8211171561133d5761133d61119e565b8060405250825181526020830151602082015260408301516040820152606083015160608201528091505092915050565b6000602080838503121561138157600080fd5b825167ffffffffffffffff8082111561139957600080fd5b818501915085601f8301126113ad57600080fd5b8151818111156113bf576113bf61119e565b8060051b91506113d08483016111b4565b81815291830184019184810190888411156113ea57600080fd5b938501935b83851015611408578451825293850193908501906113ef565b98975050505050505050565b6020808252600b908201526a27a7262cafaba924aa22a960a91b604082015260600190565b600181811c9082168061144d57607f821691505b60208210810361102757634e487b7160e01b600052602260045260246000fd5b600080835461147b81611439565b6001828116801561149357600181146114a8576114d7565b60ff19841687528215158302870194506114d7565b8760005260208060002060005b858110156114ce5781548a8201529084019082016114b5565b50505082870194505b50929695505050505050565b6000602082840312156114f557600080fd5b5051919050565b634e487b7160e01b600052603260045260246000fd5b60006001820161153257634e487b7160e01b600052601160045260246000fd5b5060010190565b6020808252600a908201526927a7262cafa7aba722a960b11b604082015260600190565b601f8211156115a357600081815260208120601f850160051c810160208610156115845750805b601f850160051c820191505b81811015610ca757828155600101611590565b505050565b815167ffffffffffffffff8111156115c2576115c261119e565b6115d6816115d08454611439565b8461155d565b602080601f83116001811461160b57600084156115f35750858301515b600019600386901b1c1916600185901b178555610ca7565b600085815260208120601f198616915b8281101561163a5788860151825594840194600190910190840161161b565b50858210156116585787850151600019600388901b60f8161c191681555b5050505050600190811b01905550565b8281526040602082015260006112d1604083018461108a565b60018060a01b03841681528260208201526060604082015260006116a8606083018461108a565b95945050505050565b6000602082840312156116c357600080fd5b8151801515811461108357600080fdfea26469706673582212205f751b671381e5f9616126f0b3b852da88edfac415c2c5ab751ff53bf8bcce6e64736f6c63430008100033608060405234801561001057600080fd5b506103bf806100206000396000f3fe608060405234801561001057600080fd5b50600436106100575760003560e01c80631003e2d21461005c578063410d59cc146100715780634cc822151461008f578063949d225d146100a2578063cccf7a8e146100b3575b600080fd5b61006f61006a3660046102d9565b6100d6565b005b610079610128565b60405161008691906102f2565b60405180910390f35b61006f61009d3660046102d9565b610180565b600054604051908152602001610086565b6100c66100c13660046102d9565b610276565b6040519015158152602001610086565b6100df81610276565b156100e75750565b600080548282526001602081905260408320829055810182559080527f290decd9548b62a8d60345a988386fc84ba6bc95484008f6362f93160ef3e5630155565b6060600080548060200260200160405190810160405280929190818152602001828054801561017657602002820191906000526020600020905b815481526020019060010190808311610162575b5050505050905090565b61018981610276565b6101905750565b600080546101a090600190610336565b815481106101b0576101b061035d565b906000526020600020015460006001600084815260200190815260200160002054815481106101e1576101e161035d565b600091825260208083209091019290925582815260019182905260408120548154909291908190849081106102185761021861035d565b90600052602060002001548152602001908152602001600020819055506001600082815260200190815260200160002060009055600080548061025d5761025d610373565b6001900381819060005260206000200160009055905550565b60008054810361028857506000919050565b60008281526001602052604081205490036102c45781600080815481106102b1576102b161035d565b9060005260206000200154149050919050565b50600090815260016020526040902054151590565b6000602082840312156102eb57600080fd5b5035919050565b6020808252825182820181905260009190848201906040850190845b8181101561032a5783518352928401929184019160010161030e565b50909695505050505050565b8181038181111561035757634e487b7160e01b600052601160045260246000fd5b92915050565b634e487b7160e01b600052603260045260246000fd5b634e487b7160e01b600052603160045260246000fdfea26469706673582212205a41463ee94c5d76095b43f62ab3d50ef2ea707f4aa6908568ec10c04bf1ddde64736f6c63430008100033608060405234801561001057600080fd5b5061046b806100206000396000f3fe608060405234801561001057600080fd5b50600436106100575760003560e01c80636526db7a1461005c578063771602f714610071578063796c5e941461008457806385edea13146100ad578063a0265ff8146100db575b600080fd5b61006f61006a366004610369565b6100fe565b005b61006f61007f366004610369565b61022d565b61009761009236600461038b565b610276565b6040516100a491906103a4565b60405180910390f35b6100cd6100bb36600461038b565b60009081526020819052604090205490565b6040519081526020016100a4565b6100ee6100e9366004610369565b6102d6565b60405190151581526020016100a4565b61010882826102d6565b610110575050565b6000828152602081905260409020805461012c906001906103e8565b8154811061013c5761013c610409565b6000918252602080832090910154848352828252604080842060018452818520868652909352909220548154811061017657610176610409565b6000918252602080832090910192909255838152600182526040808220848352808452818320548684528385529183208584529381905283549193909291849081106101c4576101c4610409565b600091825260208083209091015483528281019390935260409182018120939093558483526001825280832084845282528083208390558483529082905290208054806102135761021361041f565b600190038181906000526020600020016000905590555050565b61023782826102d6565b15610240575050565b60009182526020828152604080842080546001808552838720868852855292862081905585845291820181558452922090910155565b600081815260208181526040918290208054835181840281018401909452808452606093928301828280156102ca57602002820191906000526020600020905b8154815260200190600101908083116102b6575b50505050509050919050565b60008281526020819052604081205481036102f357506000610363565b60008381526001602090815260408083208584529091528120549003610345576000838152602081905260408120805484929061033257610332610409565b9060005260206000200154149050610363565b50600082815260016020908152604080832084845290915290205415155b92915050565b6000806040838503121561037c57600080fd5b50508035926020909101359150565b60006020828403121561039d57600080fd5b5035919050565b6020808252825182820181905260009190848201906040850190845b818110156103dc578351835292840192918401916001016103c0565b50909695505050505050565b8181038181111561036357634e487b7160e01b600052601160045260246000fd5b634e487b7160e01b600052603260045260246000fd5b634e487b7160e01b600052603160045260246000fdfea2646970667358221220b0c5179b46cd38b54fb5e2f8e092dc34365bdcb0f601f6262cffd8fb46e9757764736f6c63430008100033",
    "linkReferences": {}
  },
  "methodIdentifiers": {
    "authorizeWriter(address)": "4fef6a38",
    "getEntities()": "31b933b9",
    "getEntitiesWithValue((int256,int256,int256,int256))": "cc6ae2bd",
    "getEntitiesWithValue(bytes)": "b361be46",
    "getRawValue(uint256)": "b8bc073d",
    "getSchema()": "6b122fe0",
    "getValue(uint256)": "0ff4c916",
    "has(uint256)": "cccf7a8e",
    "id()": "af640d0f",
    "owner()": "8da5cb5b",
    "registerIndexer(address)": "75c0669c",
    "registerWorld(address)": "9d2c76b4",
    "remove(uint256)": "4cc82215",
    "set(uint256,(int256,int256,int256,int256))": "3a727344",
    "set(uint256,bytes)": "8b282947",
    "transferOwnership(address)": "f2fde38b",
    "world()": "30b67baa",
    "writeAccess(address)": "861eb905"
  },
  "id": 34
}