{
  "abi": [
    {
      "inputs": [
        {
          "internalType": "address",
          "name": "world",
          "type": "address"
        },
        {
          "internalType": "uint256",
          "name": "id",
          "type": "uint256"
        }
      ],
      "stateMutability": "nonpayable",
      "type": "constructor"
    },
    {
      "inputs": [
        {
          "internalType": "address",
          "name": "writer",
          "type": "address"
        }
      ],
      "name": "authorizeWriter",
      "outputs": [],
      "stateMutability": "nonpayable",
      "type": "function"
    },
    {
      "inputs": [],
      "name": "getEntities",
      "outputs": [
        {
          "internalType": "uint256[]",
          "name": "",
          "type": "uint256[]"
        }
      ],
      "stateMutability": "view",
      "type": "function"
    },
    {
      "inputs": [
        {
          "internalType": "bytes",
          "name": "value",
          "type": "bytes"
        }
      ],
      "name": "getEntitiesWithValue",
      "outputs": [
        {
          "internalType": "uint256[]",
          "name": "",
          "type": "uint256[]"
        }
      ],
      "stateMutability": "view",
      "type": "function"
    },
    {
      "inputs": [
        {
          "internalType": "uint256",
          "name": "value",
          "type": "uint256"
        }
      ],
      "name": "getEntitiesWithValue",
      "outputs": [
        {
          "internalType": "uint256[]",
          "name": "",
          "type": "uint256[]"
        }
      ],
      "stateMutability": "view",
      "type": "function"
    },
    {
      "inputs": [
        {
          "internalType": "uint256",
          "name": "entity",
          "type": "uint256"
        }
      ],
      "name": "getRawValue",
      "outputs": [
        {
          "internalType": "bytes",
          "name": "",
          "type": "bytes"
        }
      ],
      "stateMutability": "view",
      "type": "function"
    },
    {
      "inputs": [],
      "name": "getSchema",
      "outputs": [
        {
          "internalType": "string[]",
          "name": "keys",
          "type": "string[]"
        },
        {
          "internalType": "enum LibTypes.SchemaValue[]",
          "name": "values",
          "type": "uint8[]"
        }
      ],
      "stateMutability": "pure",
      "type": "function"
    },
    {
      "inputs": [
        {
          "internalType": "uint256",
          "name": "entity",
          "type": "uint256"
        }
      ],
      "name": "getValue",
      "outputs": [
        {
          "internalType": "uint256",
          "name": "",
          "type": "uint256"
        }
      ],
      "stateMutability": "view",
      "type": "function"
    },
    {
      "inputs": [
        {
          "internalType": "uint256",
          "name": "entity",
          "type": "uint256"
        }
      ],
      "name": "has",
      "outputs": [
        {
          "internalType": "bool",
          "name": "",
          "type": "bool"
        }
      ],
      "stateMutability": "view",
      "type": "function"
    },
    {
      "inputs": [],
      "name": "id",
      "outputs": [
        {
          "internalType": "uint256",
          "name": "",
          "type": "uint256"
        }
      ],
      "stateMutability": "view",
      "type": "function"
    },
    {
      "inputs": [],
      "name": "owner",
      "outputs": [
        {
          "internalType": "address",
          "name": "",
          "type": "address"
        }
      ],
      "stateMutability": "view",
      "type": "function"
    },
    {
      "inputs": [
        {
          "internalType": "address",
          "name": "indexer",
          "type": "address"
        }
      ],
      "name": "registerIndexer",
      "outputs": [],
      "stateMutability": "nonpayable",
      "type": "function"
    },
    {
      "inputs": [
        {
          "internalType": "address",
          "name": "_world",
          "type": "address"
        }
      ],
      "name": "registerWorld",
      "outputs": [],
      "stateMutability": "nonpayable",
      "type": "function"
    },
    {
      "inputs": [
        {
          "internalType": "uint256",
          "name": "entity",
          "type": "uint256"
        }
      ],
      "name": "remove",
      "outputs": [],
      "stateMutability": "nonpayable",
      "type": "function"
    },
    {
      "inputs": [
        {
          "internalType": "uint256",
          "name": "entity",
          "type": "uint256"
        },
        {
          "internalType": "uint256",
          "name": "value",
          "type": "uint256"
        }
      ],
      "name": "set",
      "outputs": [],
      "stateMutability": "nonpayable",
      "type": "function"
    },
    {
      "inputs": [
        {
          "internalType": "uint256",
          "name": "entity",
          "type": "uint256"
        },
        {
          "internalType": "bytes",
          "name": "value",
          "type": "bytes"
        }
      ],
      "name": "set",
      "outputs": [],
      "stateMutability": "nonpayable",
      "type": "function"
    },
    {
      "inputs": [
        {
          "internalType": "address",
          "name": "newOwner",
          "type": "address"
        }
      ],
      "name": "transferOwnership",
      "outputs": [],
      "stateMutability": "nonpayable",
      "type": "function"
    },
    {
      "inputs": [],
      "name": "world",
      "outputs": [
        {
          "internalType": "address",
          "name": "",
          "type": "address"
        }
      ],
      "stateMutability": "view",
      "type": "function"
    },
    {
      "inputs": [
        {
          "internalType": "address",
          "name": "",
          "type": "address"
        }
      ],
      "name": "writeAccess",
      "outputs": [
        {
          "internalType": "bool",
          "name": "",
          "type": "bool"
        }
      ],
      "stateMutability": "view",
      "type": "function"
    }
  ],
  "bytecode": {
    "object": "0x60806040523480156200001157600080fd5b5060405162001f0238038062001f028339810160408190526200003491620001f8565b81816040516200004490620001dc565b604051809103906000f08015801562000061573d6000803e3d6000fd5b50600380546001600160a01b0319166001600160a01b03929092169190911790556040516200009090620001ea565b604051809103906000f080158015620000ad573d6000803e3d6000fd5b50600580546001600160a01b03199081166001600160a01b03938416179091556001805433921682178155600091825260026020526040909120805460ff1916909117905560078290558216156200010a576200010a8262000114565b5050505062000234565b6001546001600160a01b03163314620001605760405162461bcd60e51b815260206004820152600a60248201526927a7262cafa7aba722a960b11b604482015260640160405180910390fd5b600080546001600160a01b0319166001600160a01b038316908117909155600754604051630f30347760e41b8152306004820152602481019190915263f303477090604401600060405180830381600087803b158015620001c057600080fd5b505af1158015620001d5573d6000803e3d6000fd5b5050505050565b6103df806200169883390190565b61048b8062001a7783390190565b600080604083850312156200020c57600080fd5b82516001600160a01b03811681146200022457600080fd5b6020939093015192949293505050565b61145480620002446000396000f3fe608060405234801561001057600080fd5b50600436106101165760003560e01c80638b282947116100a2578063b361be4611610071578063b361be4614610258578063b8bc073d1461026b578063cccf7a8e1461028b578063f2fde38b1461029e578063fbdfa1ea146102b157600080fd5b80638b282947146102185780638da5cb5b1461022b5780639d2c76b41461023c578063af640d0f1461024f57600080fd5b80634cc82215116100e95780634cc82215146101965780634fef6a38146101a95780636b122fe0146101bc57806375c0669c146101d2578063861eb905146101e557600080fd5b80630ff4c9161461011b5780631ab06ee51461014157806330b67baa1461015657806331b933b914610181575b600080fd5b61012e610129366004610da9565b6102c4565b6040519081526020015b60405180910390f35b61015461014f366004610dc2565b6102ea565b005b600054610169906001600160a01b031681565b6040516001600160a01b039091168152602001610138565b610189610319565b6040516101389190610de4565b6101546101a4366004610da9565b610390565b6101546101b7366004610e28565b610665565b6101c46106b3565b604051610138929190610ead565b6101546101e0366004610e28565b610787565b6102086101f3366004610e28565b60026020526000908152604090205460ff1681565b6040519015158152602001610138565b61015461022636600461101c565b610808565b6001546001600160a01b0316610169565b61015461024a366004610e28565b610ab6565b61012e60075481565b610189610266366004611063565b610b2a565b61027e610279366004610da9565b610baa565b60405161013891906110a0565b610208610299366004610da9565b610c4c565b6101546102ac366004610e28565b610cba565b6101896102bf366004610da9565b610d2f565b6000806102d083610baa565b8060200190518101906102e391906110b3565b9392505050565b610315828260405160200161030191815260200190565b604051602081830303815290604052610808565b5050565b60035460408051631043567360e21b815290516060926001600160a01b03169163410d59cc9160048083019260009291908290030181865afa158015610363573d6000803e3d6000fd5b505050506040513d6000823e601f3d908101601f1916820160405261038b91908101906110cc565b905090565b3360009081526002602052604090205460ff166103c85760405162461bcd60e51b81526004016103bf90611172565b60405180910390fd5b6005546000828152600460205260409081902090516001600160a01b03909216916385edea13916103f8916111d1565b60405190819003812060e083901b6001600160e01b03191682526004820152602401602060405180830381865afa158015610437573d6000803e3d6000fd5b505050506040513d601f19601f8201168201806040525081019061045b91906110b3565b15610662576005546000828152600460205260409081902090516001600160a01b0390921691636526db7a91610490916111d1565b60405190819003812060e083901b6001600160e01b0319168252600482015260248101849052604401600060405180830381600087803b1580156104d357600080fd5b505af11580156104e7573d6000803e3d6000fd5b5050600354604051634cc8221560e01b8152600481018590526001600160a01b039091169250634cc822159150602401600060405180830381600087803b15801561053157600080fd5b505af1158015610545573d6000803e3d6000fd5b5050506000828152600460205260408120610561925090610d5b565b60005b6006548110156105fb576006818154811061058157610581611247565b600091825260209091200154604051634cc8221560e01b8152600481018490526001600160a01b0390911690634cc8221590602401600060405180830381600087803b1580156105d057600080fd5b505af11580156105e4573d6000803e3d6000fd5b5050505080806105f39061125d565b915050610564565b50600054604051636c01832560e11b8152306004820152602481018390526001600160a01b039091169063d803064a906044015b600060405180830381600087803b15801561064957600080fd5b505af115801561065d573d6000803e3d6000fd5b505050505b50565b6001546001600160a01b0316331461068f5760405162461bcd60e51b81526004016103bf90611284565b6001600160a01b03166000908152600260205260409020805460ff19166001179055565b604080516001808252818301909252606091829190816020015b60608152602001906001900390816106cd575050604080516001808252818301909252919350602080830190803683370190505090506040518060400160405280600581526020016476616c756560d81b8152508260008151811061073457610734611247565b6020026020010181905250600d8160008151811061075457610754611247565b6020026020010190601f81111561076d5761076d610e97565b9081601f81111561078057610780610e97565b9052509091565b3360009081526002602052604090205460ff166107b65760405162461bcd60e51b81526004016103bf90611172565b600680546001810182556000919091527ff652222313e28459528d920b65115c16c04f3efc82aaedc97be59f3f377c0d3f0180546001600160a01b0319166001600160a01b0392909216919091179055565b3360009081526002602052604090205460ff166108375760405162461bcd60e51b81526004016103bf90611172565b600354604051630801f16960e11b8152600481018490526001600160a01b0390911690631003e2d290602401600060405180830381600087803b15801561087d57600080fd5b505af1158015610891573d6000803e3d6000fd5b50506005546000858152600460205260409081902090516001600160a01b039092169350636526db7a92506108c5916111d1565b60405190819003812060e083901b6001600160e01b0319168252600482015260248101859052604401600060405180830381600087803b15801561090857600080fd5b505af115801561091c573d6000803e3d6000fd5b5050506000838152600460205260409020905061093982826112f3565b506005548151602083012060405163771602f760e01b81526001600160a01b039092169163771602f79161097a918690600401918252602082015260400190565b600060405180830381600087803b15801561099457600080fd5b505af11580156109a8573d6000803e3d6000fd5b5050505060005b600654811015610a4b57600681815481106109cc576109cc611247565b6000918252602090912001546040516242d70760e31b81526001600160a01b0390911690630216b83890610a0690869086906004016113b3565b600060405180830381600087803b158015610a2057600080fd5b505af1158015610a34573d6000803e3d6000fd5b505050508080610a439061125d565b9150506109af565b506000546040516302bc413960e61b81526001600160a01b039091169063af104e4090610a80903090869086906004016113cc565b600060405180830381600087803b158015610a9a57600080fd5b505af1158015610aae573d6000803e3d6000fd5b505050505050565b6001546001600160a01b03163314610ae05760405162461bcd60e51b81526004016103bf90611284565b600080546001600160a01b0319166001600160a01b038316908117909155600754604051630f30347760e41b8152306004820152602481019190915263f30347709060440161062f565b60055481516020830120604051631e5b17a560e21b815260048101919091526060916001600160a01b03169063796c5e9490602401600060405180830381865afa158015610b7c573d6000803e3d6000fd5b505050506040513d6000823e601f3d908101601f19168201604052610ba491908101906110cc565b92915050565b6000818152600460205260409020805460609190610bc790611197565b80601f0160208091040260200160405190810160405280929190818152602001828054610bf390611197565b8015610c405780601f10610c1557610100808354040283529160200191610c40565b820191906000526020600020905b815481529060010190602001808311610c2357829003601f168201915b50505050509050919050565b600354604051636667bd4760e11b8152600481018390526000916001600160a01b03169063cccf7a8e90602401602060405180830381865afa158015610c96573d6000803e3d6000fd5b505050506040513d601f19601f82011682018060405250810190610ba491906113fc565b6001546001600160a01b03163314610ce45760405162461bcd60e51b81526004016103bf90611284565b33600090815260026020526040808220805460ff19908116909155600180546001600160a01b0319166001600160a01b03959095169485178155938352912080549091169091179055565b6060610ba482604051602001610d4791815260200190565b604051602081830303815290604052610b2a565b508054610d6790611197565b6000825580601f10610d77575050565b601f01602090049060005260206000209081019061066291905b80821115610da55760008155600101610d91565b5090565b600060208284031215610dbb57600080fd5b5035919050565b60008060408385031215610dd557600080fd5b50508035926020909101359150565b6020808252825182820181905260009190848201906040850190845b81811015610e1c57835183529284019291840191600101610e00565b50909695505050505050565b600060208284031215610e3a57600080fd5b81356001600160a01b03811681146102e357600080fd5b6000815180845260005b81811015610e7757602081850181015186830182015201610e5b565b506000602082860101526020601f19601f83011685010191505092915050565b634e487b7160e01b600052602160045260246000fd5b6000604082016040835280855180835260608501915060608160051b8601019250602080880160005b83811015610f0457605f19888703018552610ef2868351610e51565b95509382019390820190600101610ed6565b50508584038187015286518085528782019482019350915060005b82811015610f58578451828110610f4657634e487b7160e01b600052602160045260246000fd5b84529381019392810192600101610f1f565b5091979650505050505050565b634e487b7160e01b600052604160045260246000fd5b604051601f8201601f1916810167ffffffffffffffff81118282101715610fa457610fa4610f65565b604052919050565b600082601f830112610fbd57600080fd5b813567ffffffffffffffff811115610fd757610fd7610f65565b610fea601f8201601f1916602001610f7b565b818152846020838601011115610fff57600080fd5b816020850160208301376000918101602001919091529392505050565b6000806040838503121561102f57600080fd5b82359150602083013567ffffffffffffffff81111561104d57600080fd5b61105985828601610fac565b9150509250929050565b60006020828403121561107557600080fd5b813567ffffffffffffffff81111561108c57600080fd5b61109884828501610fac565b949350505050565b6020815260006102e36020830184610e51565b6000602082840312156110c557600080fd5b5051919050565b600060208083850312156110df57600080fd5b825167ffffffffffffffff808211156110f757600080fd5b818501915085601f83011261110b57600080fd5b81518181111561111d5761111d610f65565b8060051b915061112e848301610f7b565b818152918301840191848101908884111561114857600080fd5b938501935b838510156111665784518252938501939085019061114d565b98975050505050505050565b6020808252600b908201526a27a7262cafaba924aa22a960a91b604082015260600190565b600181811c908216806111ab57607f821691505b6020821081036111cb57634e487b7160e01b600052602260045260246000fd5b50919050565b60008083546111df81611197565b600182811680156111f7576001811461120c5761123b565b60ff198416875282151583028701945061123b565b8760005260208060002060005b858110156112325781548a820152908401908201611219565b50505082870194505b50929695505050505050565b634e487b7160e01b600052603260045260246000fd5b60006001820161127d57634e487b7160e01b600052601160045260246000fd5b5060010190565b6020808252600a908201526927a7262cafa7aba722a960b11b604082015260600190565b601f8211156112ee57600081815260208120601f850160051c810160208610156112cf5750805b601f850160051c820191505b81811015610aae578281556001016112db565b505050565b815167ffffffffffffffff81111561130d5761130d610f65565b6113218161131b8454611197565b846112a8565b602080601f831160018114611356576000841561133e5750858301515b600019600386901b1c1916600185901b178555610aae565b600085815260208120601f198616915b8281101561138557888601518255948401946001909101908401611366565b50858210156113a35787850151600019600388901b60f8161c191681555b5050505050600190811b01905550565b8281526040602082015260006110986040830184610e51565b60018060a01b03841681528260208201526060604082015260006113f36060830184610e51565b95945050505050565b60006020828403121561140e57600080fd5b815180151581146102e357600080fdfea2646970667358221220d537bc30eef379df23a98927f863a5e5fe556991fa48992ecd828a3460d2cd0d64736f6c63430008100033608060405234801561001057600080fd5b506103bf806100206000396000f3fe608060405234801561001057600080fd5b50600436106100575760003560e01c80631003e2d21461005c578063410d59cc146100715780634cc822151461008f578063949d225d146100a2578063cccf7a8e146100b3575b600080fd5b61006f61006a3660046102d9565b6100d6565b005b610079610128565b60405161008691906102f2565b60405180910390f35b61006f61009d3660046102d9565b610180565b600054604051908152602001610086565b6100c66100c13660046102d9565b610276565b6040519015158152602001610086565b6100df81610276565b156100e75750565b600080548282526001602081905260408320829055810182559080527f290decd9548b62a8d60345a988386fc84ba6bc95484008f6362f93160ef3e5630155565b6060600080548060200260200160405190810160405280929190818152602001828054801561017657602002820191906000526020600020905b815481526020019060010190808311610162575b5050505050905090565b61018981610276565b6101905750565b600080546101a090600190610336565b815481106101b0576101b061035d565b906000526020600020015460006001600084815260200190815260200160002054815481106101e1576101e161035d565b600091825260208083209091019290925582815260019182905260408120548154909291908190849081106102185761021861035d565b90600052602060002001548152602001908152602001600020819055506001600082815260200190815260200160002060009055600080548061025d5761025d610373565b6001900381819060005260206000200160009055905550565b60008054810361028857506000919050565b60008281526001602052604081205490036102c45781600080815481106102b1576102b161035d565b9060005260206000200154149050919050565b50600090815260016020526040902054151590565b6000602082840312156102eb57600080fd5b5035919050565b6020808252825182820181905260009190848201906040850190845b8181101561032a5783518352928401929184019160010161030e565b50909695505050505050565b8181038181111561035757634e487b7160e01b600052601160045260246000fd5b92915050565b634e487b7160e01b600052603260045260246000fd5b634e487b7160e01b600052603160045260246000fdfea26469706673582212205a41463ee94c5d76095b43f62ab3d50ef2ea707f4aa6908568ec10c04bf1ddde64736f6c63430008100033608060405234801561001057600080fd5b5061046b806100206000396000f3fe608060405234801561001057600080fd5b50600436106100575760003560e01c80636526db7a1461005c578063771602f714610071578063796c5e941461008457806385edea13146100ad578063a0265ff8146100db575b600080fd5b61006f61006a366004610369565b6100fe565b005b61006f61007f366004610369565b61022d565b61009761009236600461038b565b610276565b6040516100a491906103a4565b60405180910390f35b6100cd6100bb36600461038b565b60009081526020819052604090205490565b6040519081526020016100a4565b6100ee6100e9366004610369565b6102d6565b60405190151581526020016100a4565b61010882826102d6565b610110575050565b6000828152602081905260409020805461012c906001906103e8565b8154811061013c5761013c610409565b6000918252602080832090910154848352828252604080842060018452818520868652909352909220548154811061017657610176610409565b6000918252602080832090910192909255838152600182526040808220848352808452818320548684528385529183208584529381905283549193909291849081106101c4576101c4610409565b600091825260208083209091015483528281019390935260409182018120939093558483526001825280832084845282528083208390558483529082905290208054806102135761021361041f565b600190038181906000526020600020016000905590555050565b61023782826102d6565b15610240575050565b60009182526020828152604080842080546001808552838720868852855292862081905585845291820181558452922090910155565b600081815260208181526040918290208054835181840281018401909452808452606093928301828280156102ca57602002820191906000526020600020905b8154815260200190600101908083116102b6575b50505050509050919050565b60008281526020819052604081205481036102f357506000610363565b60008381526001602090815260408083208584529091528120549003610345576000838152602081905260408120805484929061033257610332610409565b9060005260206000200154149050610363565b50600082815260016020908152604080832084845290915290205415155b92915050565b6000806040838503121561037c57600080fd5b50508035926020909101359150565b60006020828403121561039d57600080fd5b5035919050565b6020808252825182820181905260009190848201906040850190845b818110156103dc578351835292840192918401916001016103c0565b50909695505050505050565b8181038181111561036357634e487b7160e01b600052601160045260246000fd5b634e487b7160e01b600052603260045260246000fd5b634e487b7160e01b600052603160045260246000fdfea2646970667358221220b0c5179b46cd38b54fb5e2f8e092dc34365bdcb0f601f6262cffd8fb46e9757764736f6c63430008100033",
    "linkReferences": {}
  },
  "methodIdentifiers": {
    "authorizeWriter(address)": "4fef6a38",
    "getEntities()": "31b933b9",
    "getEntitiesWithValue(bytes)": "b361be46",
    "getEntitiesWithValue(uint256)": "fbdfa1ea",
    "getRawValue(uint256)": "b8bc073d",
    "getSchema()": "6b122fe0",
    "getValue(uint256)": "0ff4c916",
    "has(uint256)": "cccf7a8e",
    "id()": "af640d0f",
    "owner()": "8da5cb5b",
    "registerIndexer(address)": "75c0669c",
    "registerWorld(address)": "9d2c76b4",
    "remove(uint256)": "4cc82215",
    "set(uint256,bytes)": "8b282947",
    "set(uint256,uint256)": "1ab06ee5",
    "transferOwnership(address)": "f2fde38b",
    "world()": "30b67baa",
    "writeAccess(address)": "861eb905"
  },
  "id": 16
}